:020000040000FA
:0400000080316028C3
:100008007E1480314E01961E0A280B285E288C1E0D
:100018000E280F285E28DC307A06053003197B0687
:10002800031D172818281A2840019A1565307A06E2
:10003800043003197B06031D2228232825284001A4
:100048009A11EE307A06023003197B06031D2D281B
:100058002E28302840019A1577307A06031D382853
:100068007B03031D382839283B2840019A117A0858
:100078007B04031D40284128432840019A157B082A
:10008800803AF00080307002031D4C2802307A025A
:10009800031C4F2850285428FF30FA07FF30FB3D37
:1000A80006304B019C0001304001C0070030C13DC3
:1000B8004E018C127E100900803162288131AC21FA
:1000C8008031FA008131AD218031FB005630840047
:1000D800813085002030860000308700183081315B
:1000E800A6218031B801B901BA01BB01BC01BD012B
:1000F800BE01BF01C001C101C201C3017E104001A0
:100108008031862840019411141151010D088F394E
:1001180060388D00F0308D051308F83906389300E3
:100128008B170B174B019E171F081F3940389F006C
:100138001F08F03905389F004E01961681316E214F
:1001480080318131972180315830F6000230F70034
:1001580081318421803181312E2180317108400123
:10016800C4007208C500450DC50CC40C450DC50C6E
:10017800C40C4408F6004508F70081318421803119
:1001880005304001C5000F30C400F130890BCA2882
:10019800C40BCA28C50BCA2840014108803AC400CC
:1001A80083304402031DDA28E8304002031CDD28AE
:1001B800DE28AF2881312E21803172084001BF002E
:1001C8007108BE002D083F02031DEC282C083E02D2
:1001D8000318EF28F02805290130BA070030BB3D85
:1001E800B801B90121083B02031DFC2820083A0286
:1001F800031CFF28002905291A152108BB0020081F
:10020800BA003F082D02031D0B293E082C020318D3
:100218000E290F2928290130B8070030B93DBA0145
:10022800BB013908803AC40080304402031D1E29EE
:100238000A303802031C21292229282940011A11D1
:100248000A30B8000030B9004001C001C101AF2830
:1002580080316028420111141118332934293029BA
:1002680041011E08F300F40173084001C20074083C
:10027800C3004308F4004208F3007308F400F301D4
:100288007308C2007408C30041011D08F300F4019B
:1002980073084001C2047408C3044308F20042080A
:1002A800F10008001E3400343C3400345A34003461
:1002B8007834003496340034B4340034333403349E
:1002C800AA340334CD340434663406340034083494
:1002D800993409340D307E019500400192168F3013
:1002E80045018E05F0308E05E0308F051008F03995
:1002F800013890008E1747018E17400192120800AE
:100308007708F9007608F8000630F835F90D890BFA
:1003180089297808F6007908F700770847018D00E1
:1003280076088C00080042011108F339043891005E
:100338004001121641011F08C03904389F004201CC
:1003480091170800FE0012001E00FE0BA7290034BA
:04035800DC34053458
:020000040001F9
:0A000E008C3F3F379F3FFF3FFF3F4D
:00000001FF
